:02000000652B6E
:10000800FF00030E8301AE000A08AF008A017008E2
:10001800A0000B113D308100A30A0319A40A003087
:100028002406031D192814302306031D2028A301C4
:10003800A401A50A0319A60A00302606031D2628CE
:100048003C302506031D2D28A501A601A70A031982
:10005800A80A00302806031D332805302706031D8B
:100068003A28A701A801A10A0319A20A003022060A
:10007800031D402890302106031D4428A101A20138
:100088002008F0002F088A002E0E8300FF0E7F0E36
:0200980009005D
:0A009A008312031307140710080077
:0A00A400831203138515851108006F
:1000AE00831203133308AB000830AC000030AD00F0
:1000BE002D08003C031D65282C08003C03187528EC
:1000CE00AB1B6B2805116C280515AB0D2B100615F7
:0E00DE0006110130AC02031CAD035F280800C0
:1000EC00831203133308AB000830AC000030AD00B2
:1000FC002D08003C031D84282C08003C0318942870
:10010C00AB1B8A2885128B288516AB0D2B108714F8
:0E011C0087100130AC02031CAD037E280800E2
:0A012A0083120313061406100800E8
:10013400831203133308AB000830AC000030AD0069
:100144002D08003C031DA8282C08003C0318B828DF
:10015400AB1BAE280811AF280815AB0D2B10861465
:0E01640086100130AC02031CAD03A228080077
:0E017200831203132A088A002908820008005D
:10018000831203133008B3009A2095203108B3007E
:0E01900076204D203208B30057205220080080
:10019E00831203132208003C031DD7282108643C58
:1001AE000318FD2900302206031DDF2865302106C5
:1001BE00031DE7285230B0009430B100B201C020C8
:1001CE0000302206031DED2866302106031DF5289A
:1001DE00C230B0008430B100B201C020003022061F
:1001EE00031DFB2867302106031D04291630B000BD
:1001FE001430B1008030B200C02000302206031D42
:10020E000A2968302106031D13290630B000143068
:10021E00B1008030B200C02000302206031D192923
:10022E0069302106031D22290630B0000630B100C8
:10023E008030B200C02000302206031D28296A300B
:10024E002106031D31290630B0000430B100843080
:10025E00B200C02000302206031D37296B30210664
:10026E00031D40291630B0000430B1008030B200BA
:10027E00C02000302206031D46296C302106031DC6
:10028E004E290630B0000430B100B201C02000305B
:10029E002206031D54296D302106031D5C2956309C
:1002AE00B0000430B100B201C02000302206031DA0
:1002BE0062296E302106031D6B294630B0000430D2
:1002CE00B1000430B200C02000302206031D712997
:1002DE006F302106031D79294630B0000630B1007B
:1002EE00B201C02000302206031D7F297030210686
:1002FE00031D87294630B0001430B100B201C02072
:10030E0000302206031D8D2971302106031D95290B
:10031E005630B0001430B100B201C02000302206B9
:10032E00031D9B2972302106031DA329C630B00080
:10033E000430B100B201C02000302206031DA929ED
:10034E0073302106031DB2291230B0001430B100F3
:10035E009030B200C02000302206031DB829743040
:10036E002106031DC1290230B0001430B1009030B7
:10037E00B200C02000302206031DC72975302106A9
:10038E00031DD0290230B0000630B1009030B2000B
:10039E00C02000302206031DD62976302106031D0B
:1003AE00DF290230B0000430B1009430B200C0201A
:1003BE0000302206031DE52977302106031DEE29A4
:1003CE001230B0000430B1009030B200C0200030C6
:1003DE002206031DF42978302106031DFD29023063
:1003EE00B0000430B1001030B200C0202208003C32
:1003FE00031D032A2108783C0318582B00302206CF
:10040E00031D0B2A79302106031D142A5230B00029
:10041E000430B1001030B200C02000302206031D9F
:10042E001A2A7A302106031D232A4230B0000430E6
:10043E00B1001430B200C02000302206031D292A5C
:10044E007B302106031D322A4230B0000630B10047
:10045E001030B200C02000302206031D382A7C3036
:10046E002106031D412A4230B0001430B100103075
:10047E00B200C02000302206031D472A7D3021061F
:10048E00031D502A5230B0001430B1001030B200AB
:10049E00C02000302206031D562A7E302106031D81
:1004AE005F2AC230B0000430B1001030B200C0205C
:1004BE0000302206031D652A7F302106031D6E2A99
:1004CE001230B0001C30B1008030B200C0200030BD
:1004DE002206031D742A80302106031D7D2A023058
:1004EE00B0001C30B1008030B200C02000302206B7
:1004FE00031D832A81302106031D8C2A0230B00091
:10050E000E30B1008030B200C02000302206031D34
:10051E00922A82302106031D9B2A0230B0000C3035
:10052E00B1008430B200C02000302206031DA12A83
:10053E0083302106031DAA2A1230B0000C30B10000
:10054E008030B200C02000302206031DB02A843055
:10055E002106031DB82A0230B0000C30B100B201E2
:10056E00C02000302206031DBE2A85302106031D41
:10057E00C62A5230B0000C30B100B201C02000309B
:10058E002206031DCC2A86302106031DD52A4230B1
:10059E00B0000C30B1000430B200C0200030220692
:1005AE00031DDB2A87302106031DE32A4230B000EB
:1005BE000E30B100B201C02000302206031DE92A20
:1005CE0088302106031DF12A4230B0001C30B100E4
:1005DE00B201C02000302206031DF72A8930210601
:1005EE00031DFF2A5230B0001C30B100B201C020F2
:1005FE0000302206031D052B8A302106031D0D2B0C
:10060E00C230B0000C30B100B201C0200030220662
:10061E00031D132B8B302106031D1C2B1230B00033
:10062E001430B1008230B200C02000302206031D0B
:10063E00222B8C302106031D2B2B0230B0001430E0
:10064E00B1008230B200C02000302206031D312BD3
:10065E008D302106031D3A2B0230B0000630B1005A
:10066E008230B200C02000302206031D402B8E3097
:10067E002106031D492B0230B0000430B100863034
:10068E00B200C02000302206031D4F2B8F302106F2
:10069E00031D582B1230B0000430B1008230B2006E
:0406AE00C020080060
:1006B200B9208A110A128000840AA90A0319AA0A17
:0806C200F003031D592B080091
:1006CA006D3083120313A100A201831687018601EC
:1006DA00880185018B178B16873081003D30831284
:0C06EA0081008A1500208A11CF207A2B95
:101000000030831203132206031D08280030210636
:10101000031D13280230B0000430B1000230B200CA
:101020008A11C0208A152208003C031D19282108B6
:10103000003C0318232800302202031D212815300C
:1010400021020318232800302206031D292801301D
:101050002106031D34285230B0000430B1000230A4
:10106000B2008A11C0208A1500302206031D3A28DA
:1010700002302106031D45284230B0000430B10083
:101080000630B2008A11C0208A1500302206031DE6
:101090004B2803302106031D56284230B00006308D
:1010A000B1000230B2008A11C0208A150030220639
:1010B000031D5C2804302106031D67284230B00060
:1010C0001430B1000230B2008A11C0208A150030FD
:1010D0002206031D6D2805302106031D7828523095
:1010E000B0001430B1000230B2008A11C0208A155D
:1010F00000302206031D7E2806302106031D8928A4
:10110000C230B0000430B1000230B2008A11C020F9
:101110008A1500302206031D8F2807302106031D83
:101120009A281230B0001430B100C030B2008A11D9
:10113000C0208A1500302206031DA0280830210691
:10114000031DAB280230B0001430B100C030B20033
:101150008A11C0208A1500302206031DB1280930EB
:101160002106031DBC280230B0000630B100C0309B
:10117000B2008A11C0208A1500302206031DC22841
:101180000A302106031DCD280230B0000430B10022
:10119000C430B2008A11C0208A1500302206031D17
:1011A000D3280B302106031DDE281230B000043096
:1011B000B100C030B2008A11C0208A15003022066A
:1011C000031DE4280C302106031DEF280230B00077
:1011D0000430B1004030B2008A11C0208A150030BE
:1011E0002206031DF5280D302106031D002952306B
:1011F000B0000430B1004030B2008A11C0208A151E
:1012000000302206031D06290E302106031D112978
:101210004230B0000430B1004430B2008A11C02026
:101220008A1500302206031D17290F302106031DE1
:1012300022294230B0000630B1004030B2008A119D
:10124000C0208A1500302206031D282910302106EF
:10125000031D33294230B0001430B1004030B200D9
:101260008A11C0208A1500302206031D3929113049
:101270002106031D44295230B0001430B100403023
:10128000B2008A11C0208A1500302206031D4A29A7
:1012900012302106031D5529C230B0000430B100C0
:1012A0004030B2008A11C0208A1500302206031D8A
:1012B0005B2913302106031D66291230B00014305B
:1012C000B100A030B2008A11C0208A150030220679
:1012D000031D6C2914302106031D77290230B0004C
:1012E0001430B100A030B2008A11C0208A15220843
:1012F000003C031D7D292108143C0318292A0030D5
:101300002206031D852915302106031D9029023070
:10131000B0000630B100A030B2008A11C0208A159A
:1013200000302206031D962916302106031DA1292F
:101330000230B0000430B100A430B2008A11C020E5
:101340008A1500302206031DA72917302106031D28
:10135000B2291230B0000430B100A030B2008A11BE
:10136000C0208A1500302206031DB8291830210636
:10137000031DC3290230B0000430B1002030B20098
:101380008A11C0208A1500302206031DC929193090
:101390002106031DD4295230B0000430B1002030A2
:1013A000B2008A11C0208A1500302206031DDA29F6
:1013B0001A302106031DE5294230B0000430B10087
:1013C0002430B2008A11C0208A1500302206031D85
:1013D000EB291B302106031DF6294230B0000630F0
:1013E000B1002030B2008A11C0208A1500302206D8
:1013F000031DFC291C302106031D072A4230B000C2
:101400001430B1002030B2008A11C0208A1500309B
:101410002206031D0D2A1D302106031D182A5230F5
:10142000B0001430B1002030B2008A11C0208A15FB
:1014300000302206031D1E2A1E302106031D292A04
:10144000C230B0000430B1002030B2008A11C02098
:101450008A152208003C031D2F2A21081E3C031870
:10146000D72A00302206031D372A1F302106031D0C
:10147000422A1230B0003430B1008030B2008A11FC
:10148000C0208A1500302206031D482A203021067C
:10149000031D532A0230B0003430B1008030B20056
:1014A0008A11C0208A1500302206031D592A2130D6
:1014B0002106031D642A0230B0002630B1008030BE
:1014C000B2008A11C0208A1500302206031D6A2A44
:1014D00022302106031D752A0230B0002430B100ED
:1014E0008430B2008A11C0208A1500302206031D04
:1014F0007B2A23302106031D862A1230B0002430B7
:10150000B1008030B2008A11C0208A150030220656
:10151000031D8C2A24302106031D962A0230B000B8
:101520002430B100B2018A11C0208A150030220691
:10153000031D9C2A25302106031DA62A5230B00027
:101540002430B100B2018A11C0208A150030220671
:10155000031DAC2A26302106031DB72A4230B000F5
:101560002430B1000430B2008A11C0208A15003046
:101570002206031DBD2A27302106031DC72A42303B
:10158000B0002630B100B2018A11C0208A150030A7
:101590002206031DCD2A28302106031DD72A4230FA
:1015A000B0003430B100B2018A11C0208A1522087F
:1015B000003C031DDD2A2108283C0318852B003040
:1015C0002206031DE52A29302106031DEF2A523089
:1015D000B0003430B100B2018A11C0208A15003049
:1015E0002206031DF52A2A302106031DFF2AC230D8
:1015F000B0002430B100B2018A11C0208A15003039
:101600002206031D052B2B302106031D102B323023
:10161000B0001430B1008030B2008A11C0208A15A9
:1016200000302206031D162B2C302106031D212B12
:101630002230B0001430B1008030B2008A11C020D6
:101640008A1500302206031D272B2D302106031D8D
:10165000322B2230B0000630B1008030B2008A1147
:10166000C0208A1500302206031D382B2E3021069B
:10167000031D432B2230B0000430B1008430B2008F
:101680008A11C0208A1500302206031D492B2F30F5
:101690002106031D542B3230B0000430B1008030DD
:1016A000B2008A11C0208A1500302206031D5A2B71
:1016B00030302106031D642B2230B0000430B1000D
:1016C000B2018A11C0208A1500302206031D6A2B40
:1016D00031302106031D742B7230B0000430B1008C
:1016E000B2018A11C0208A1500302206031D7A2B10
:1016F00032302106031D852B4230B0000430B1008A
:101700000430B2008A11C0208A152208003C031D53
:101710008B2B2108323C0318322C00302206031D8B
:10172000932B33302106031D9D2B6230B000063011
:10173000B100B2018A11C0208A1500302206031DB3
:10174000A32B34302106031DAD2B6230B0001430C2
:10175000B100B2018A11C0208A1500302206031D93
:10176000B32B35302106031DBD2B7230B000143071
:10177000B100B2018A11C0208A1500302206031D73
:10178000C32B36302106031DCD2BE230B0000430D0
:10179000B100B2018A11C0208A1500302206031D53
:1017A000D32B37302106031DDE2B1A30B000143046
:1017B000B1008030B2008A11C0208A1500302206A4
:1017C000031DE42B38302106031DEF2B0A30B00037
:1017D0001430B1008030B2008A11C0208A15003068
:1017E0002206031DF52B39302106031D002C0A307B
:1017F000B0000630B1008030B2008A11C0208A15D6
:1018000000302206031D062C3A302106031D112C40
:101810000A30B0000430B1008430B2008A11C02018
:101820008A1500302206031D172C3B302106031DAC
:10183000222C1A30B0000430B1008030B2008A117E
:10184000C0208A1500302206031D282C3C302106BA
:10185000031D322C0A30B0000430B100B2018A11ED
:10186000C0208A152208003C031D382C21083C3C6E
:101870000318DF2C00302206031D402C3D302106CA
:10188000031D4A2C5A30B0000430B100B2018A1155
:10189000C0208A1500302206031D502C3E30210640
:1018A000031D5B2C4A30B0000430B1000430B2009C
:1018B0008A11C0208A1500302206031D612C3F309A
:1018C0002106031D6B2C4A30B0000630B100B20176
:1018D0008A11C0208A1500302206031D712C403069
:1018E0002106031D7B2C4A30B0001430B100B20138
:1018F0008A11C0208A1500302206031D812C413038
:101900002106031D8B2C5A30B0001430B100B201F7
:101910008A11C0208A1500302206031D912C423006
:101920002106031D9B2CCA30B0000430B100B20167
:101930008A11C0208A1500302206031DA12C4330D5
:101940002106031DAC2C1230B0001430B1008830D9
:10195000B2008A11C0208A1500302206031DB22C65
:1019600044302106031DBD2C0230B0001430B100FC
:101970008830B2008A11C0208A1500302206031D6B
:10198000C32C45302106031DCE2C0230B00006309A
:10199000B1008830B2008A11C0208A1500302206BA
:1019A000031DD42C46302106031DDF2C0230B0006D
:1019B0000430B1008C30B2008A11C0208A15220890
:1019C000003C031DE52C2108463C0318912D0030F6
:1019D0002206031DED2C47302106031DF82C123082
:1019E000B0000430B1008830B2008A11C0208A15DE
:1019F00000302206031DFE2C48302106031D092D50
:101A00000230B0000430B1000830B2008A11C020AA
:101A10008A1500302206031D0F2D49302106031DB3
:101A20001A2D5230B0000430B1000830B2008A11D3
:101A3000C0208A1500302206031D202D4A302106C1
:101A4000031D2B2D4230B0000430B1000C30B20029
:101A50008A11C0208A1500302206031D312D4B301B
:101A60002106031D3C2D4230B0000630B100083085
:101A7000B2008A11C0208A1500302206031D422DB3
:101A80004C302106031D4D2D4230B0001430B10002
:101A90000830B2008A11C0208A1500302206031DCA
:101AA000532D4D302106031D5E2D5230B0001430F1
:101AB000B1000830B2008A11C0208A150030220619
:101AC000031D642D4E302106031D6F2DC230B00062
:101AD0000430B1000830B2008A11C0208A150030ED
:101AE0002206031D752D4F302106031D802D123057
:101AF000B0005430B1008030B2008A11C0208A1585
:101B000000302206031D862D50302106031D912D25
:101B10000230B0005430B1008030B2008A11C020D1
:101B20008A152208003C031D972D2108503C0318FC
:101B30003D2E00302206031D9F2D51302106031D2E
:101B4000AA2D0230B0004630B1008030B2008A11B8
:101B5000C0208A1500302206031DB02D5230210608
:101B6000031DBB2D0230B0004430B1008430B20000
:101B70008A11C0208A1500302206031DC12D533062
:101B80002106031DCC2D1230B0004430B10080304E
:101B9000B2008A11C0208A1500302206031DD22D02
:101BA00054302106031DDC2D0230B0004430B1005A
:101BB000B2018A11C0208A1500302206031DE22DD1
:101BC00055302106031DEC2D5230B0004430B100D9
:101BD000B2018A11C0208A1500302206031DF22DA1
:101BE00056302106031DFD2D4230B0004430B100B7
:101BF0000430B2008A11C0208A1500302206031D6D
:101C0000032E57302106031D0D2E4230B000463002
:101C1000B100B2018A11C0208A1500302206031DCE
:101C2000132E58302106031D1D2E4230B0005430B3
:101C3000B100B2018A11C0208A1500302206031DAE
:101C4000232E59302106031D2D2E5230B000543062
:101C5000B100B2018A11C0208A1500302206031D8E
:101C6000332E5A302106031D3D2EC230B0004430C1
:101C7000B100B2018A11C0208A152208003C031D60
:101C8000432E21085A3C0318EB2E00302206031D78
:101C90004B2E5B302106031D562E1230B0009430BF
:101CA000B1008030B2008A11C0208A1500302206AF
:101CB000031D5C2E5C302106031D672E0230B00030
:101CC0009430B1008030B2008A11C0208A150030F3
:101CD0002206031D6D2E5C302106031D782E023076
:101CE000B0008630B1008030B2008A11C0208A1561
:101CF00000302206031D7E2E5E302106031D892E34
:101D00000230B0008430B1008430B2008A11C020AB
:101D10008A1500302206031D8F2E5F302106031D19
:101D20009A2E1230B0008430B1008030B2008A1197
:101D3000C0208A1500302206031DA02E6030210627
:101D4000031DAA2E0230B0008430B100B2018A1106
:101D5000C0208A1500302206031DB02E61302106F6
:101D6000031DBA2E5230B0008430B100B2018A1186
:101D7000C0208A1500302206031DC02E62302106C5
:101D8000031DCB2E4230B0008430B1000430B200CD
:101D90008A11C0208A1500302206031DD12E63301F
:101DA0002106031DDB2E4230B0008630B100B201A7
:101DB0008A11C0208A1500302206031DE12E6430EE
:101DC0002106031DEB2E4230B0009430B100B20169
:081DD0008A11C0208A150800E9
:02400E004A2F37
:00000001FF
